:020000040800F2
:100000000033002045010008150F0008790D000895
:10001000110F0008A7080008691F00080000000071
:10002000000000000000000000000000CD140008E7
:10003000290A000800000000751300088D17000849
:100040005F0100085F0100085F0100085F01000810
:100050005F0100085F0100085F0100085F01000800
:100060005F0100085F0100085F0100085F010008F0
:100070005F0100085F0100085F0100085F010008E0
:100080005F0100085F0100085F0100085F010008D0
:100090005F0100085F0100085F0100085F010008C0
:1000A0005F0100085F0100085F0100085F010008B0
:1000B0005F0100085F010008D91900085F0100080E
:1000C0005F0100085F0100085F0100085F01000890
:1000D0005F010008951B00081D1C00085F01000857
:1000E0005F0100085F0100085F0100085F01000870
:1000F0005F0100085F0100085F0100085F01000860
:100100005F0100085F0100085F0100085F0100084F
:100110005F0100085F0100085F0100085F0100083F
:100120005F0100085F0100085F0100085F0100082F
:10013000DFF80CD000F018FB00480047A52A0008A3
:10014000003300200648804706480047FEE7FEE7E8
:10015000FEE7FEE7FEE7FEE7FEE7FEE7FEE7FEE777
:100160009117000831010008D2B201E000F8012B1C
:10017000491EFBD270470022F6E710B513460A4627
:1001800004461946FFF7F0FF204610BD30B505467E
:100190002A460B4612F8010B13F8014B08B1A04296
:1001A000F8D01CB1002802D06D1CF1E7284630BD04
:1001B000CAB2401E10F8011F8A4202D00029F9D1AC
:1001C0000020704770B5064601F0A4FF046805469C
:1001D0000A220021304600F0ABF92C6070BD2DE9F9
:1001E000FE4F804681EA0300C00F0C46009021F0CC
:1001F000004123F00045B8EB0200A94105D240467A
:10020000214690461C460B46024623F00040104310
:1002100047D0270DC7F30A00C3F30A510290401AD2
:10022000019040286BDAC3F3130040F4801B009860
:10023000924620B10023D2EB030A63EB0B0B01982B
:100240005946C0F14002504600F041F906460D46BD
:1002500050465946019A00F059F910EB08006141E7
:10026000002487EA115284EAE7731A4340D0009AC7
:1002700062B3019A012A4FEA075215DC001B61EBB9
:1002800002014FF0004202EA0752CDE90042001C91
:1002900041F5801132462B4600F091F903B0BDE8DC
:1002A000F08F40462146F9E7001B61EB0201001C7C
:1002B00041F5801300185B412018A2F5001747EBA9
:1002C000030140EAD570B6196D4111E06D084FEA9F
:1002D000360645EAC0754FEA0752001B61EB020182
:1002E000001C41F5801149084FEA300000195141C6
:1002F00032462B4603B0BDE8F04F00F051B90098EC
:10030000012240000023D0EB020263EBE07300986F
:1003100021464FEAE074B8EB000061EB0401E9E725
:1003200083F000435BE781F0004158E72DE9FE4F81
:1003300081EA030404F0004421F0004100944FF0EE
:10034000000B23F0004350EA01045ED052EA03049C
:100350005BD0C3F30A54C1F30A552C44A4F2F3341E
:100360000194A0FB0254C1F3130141F48011C3F3C3
:10037000130343F4801301FB024400FB034E840A81
:10038000970A44EA815447EA8357A4FB0768029519
:100390008D0A05FB07854FEA932C04FB0C542705B7
:1003A000029D4FEA065847EA1637B5EB08056EEB93
:1003B000070C870E920E47EA811742EA8312A7FBC9
:1003C0000201B6EB0B0164EB00042B0D43EA0C3386
:1003D0005E1844EB1C50DA465146E7FB0201C5F3B8
:1003E00013044FEA0B3343EA14534FEA0432019CDF
:1003F00043EA0603A4F10C040294009CCDE900B486
:1004000000F0DDF803B0BDE8F08F00200146F9E709
:1004100030B5041E71F1000404DB4FF0004440428B
:1004200064EB0101141E73F1000405DB1C464FF060
:100430000043524263EB0403994208BF904230BD2F
:1004400030B50B46014600202022012409E021FAA4
:1004500002F59D4205D303FA02F5491B04FA02F5A1
:100460002844151EA2F10102F1DC30BD2DE9F05F38
:100470000546002092469B46884606468146402413
:100480001BE0284641464746224600F02FF85346D7
:100490005A46C01A914110D311461846224600F020
:1004A00016F82D1A67EB01084F462246012000215D
:1004B00000F00DF817EB00094E41201EA4F10104D5
:1004C000DFDC484631462A464346BDE8F09F202AF5
:1004D00004DB203A00FA02F1002070479140C2F19B
:1004E000200320FA03F3194390407047202A04DBCD
:1004F000203A21FA02F00021704721FA02F3D0409D
:10050000C2F120029140084319467047202A06DBB9
:10051000CB17203A41FA02F043EAE07306E041FAD1
:1005200002F3D040C2F120029140084319467047BF
:100530002DE9F04791460F4680460446002614F800
:10054000015B2DB100F022F90068405DC007F6D1D3
:100550002B2D02D02D2D18D0641E4A463946204638
:1005600000F018F927B13968A14201D1C7F800801D
:1005700071054FF002040BD54042002803DD01F065
:10058000C9FD0460A007BDE8F08746F48066E4E793
:100590000028F8DA01F0BEFD04606FF00040F2E7D9
:1005A00010B5141E73F1000408DA401C41F100017B
:1005B00092185B411A4301D120F0010010BD2DE9D2
:1005C000F04D92469B4611B1B1FA81F202E0B0FAC9
:1005D00080F220329046FFF77AFF04460F4640EA49
:1005E0000A0041EA0B0153465A46084313D011460C
:1005F00053EA010019D0C8F140025046FFF776FFD8
:1006000005460E46504659464246FFF760FF0843EE
:1006100005D0012004E020463946BDE8F08D0020D9
:10062000054346EAE0762C4337430A986305E40A1B
:10063000A0EB08000022FD0A44EA47540A3002D524
:1006400000200146E9E7010510196941DDE9084587
:1006500000196941BDE8F04DA2E72DE9F04D81EAAE
:10066000030404F0004B21F0004514464FF0000A4B
:1006700023F0004150EA050220D054EA01021DD0C7
:10068000C5F30A570246C5F31303C1F31300C1F3C0
:100690000A5640F4801543F48013A7EB0608101B9C
:1006A000D64608F2FD3873EB050002D308F10108C5
:1006B00001E092185B41B8F1000F03DA0020014617
:1006C000BDE8F08D00204FF48011064684460EE010
:1006D000171B73EB050705D3121B63EB05030643DA
:1006E0004CEA010C49084FEA300092185B4150EA8D
:1006F0000107EDD152EA030012D082EA040083EA36
:100700000501084305D0101BAB4106D2012200238E
:1007100006E000224FF0004302E06FF001025310A8
:100720001AEB06004CEB085110EB0A0041EB0B01F1
:10073000BDE8F04DFFF734BFC1F30A52C1F3130116
:1007400040F2FF3341F480119A4202DA0020014660
:10075000704740F233439A42A2F2334202DC5242E3
:10076000FFF7C4BEFFF7B3BE064C074D06E0E068D6
:1007700040F0010394E8070098471034AC42F6D3E8
:10078000FFF7DAFCD02C0008F02C00080048704776
:10079000CC2C00082DE9F05F824600780027154632
:1007A0008B460AF10104B946302801D09DB113E00F
:1007B00014F8010B0127782803D0582801D045B13F
:1007C0000AE00DB1102D07D10027102514F8010BF8
:1007D00002E0082500E00A250026B0460EE005FBF1
:1007E000080005FB06F1012701EB10461FFA80F80F
:1007F000B6F5803F00D3B94614F8010B294600F046
:1008000018F80028EBDABBF1000F05D00FB1641E19
:1008100000E05446CBF80040B9F1000F06D001F0DB
:1008200079FC02210160C81EBDE8F09F48EA06403D
:10083000FAE73A2800D2303820F02002412A01D3CA
:10084000A2F13700884201D34FF0FF30704770B5F6
:100850008C1810F8015B15F0070301D110F8013B6B
:100860002A1106D110F8012B03E010F8016B01F8F2
:10087000016B5B1EF9D12B0705D40023521E0DD44A
:1008800001F8013BFAE710F8013BCB1A921C03E098
:1008900013F8015B01F8015B521EF9D5A142D8D3D0
:1008A000002070BD704700BFFEE7000010B50120BA
:1008B00000F0A2FA04463CB14548007820B945480A
:1008C000047001204249087064B141480078012851
:1008D00008DB3F4800781E2804DC3D480078401CB7
:1008E0003B490870002C53D13948007800284FDD6F
:1008F000374800781E284BDA36480078012804D0A3
:10090000022815D003283BD126E033A001F0DEFBFE
:1009100034480078002805DD324800781E38314917
:10092000087004E000202F4908702F49887028E0E3
:100930002EA001F0CBFB2B480078B42805DA29481B
:1009400000781E302749087005E0B420254908705A
:1009500001202549887014E027A001F0B7FB224848
:100960008078012805D100201E4908701E49887032
:1009700005E0B4201B49087001201B49887000E085
:1009800000BF00BF01F08CFB0020114908701EE081
:10099000ECB90F4800781E2819DB0E4800780128B2
:1009A00004D0022806D003280CD107E015A001F0DE
:1009B0008DFB08E016A001F089FB04E017A001F010
:1009C00085FB00E000BF00BF00200149087010BD9A
:1009D000D60B0020D70B00204B6579315F53686F31
:1009E00072740A00D20B0020EC2E00204B65793285
:1009F0005F53686F72740A004B6579335F53686F99
:100A000072740A004B6579315F4C6F6E670A0000A3
:100A10004B6579325F4C6F6E670A00004B65793326
:100A20005F4C6F6E670A000070470000044900E0E9
:100A3000521C11F8013B002BFAD1500870470000FE
:100A4000E80A002010B50446062C22D2DFE804F0A4
:100A500003080D12171C0121084600F08DFC18E058
:100A60000121022000F088FC13E00121042000F0A5
:100A700083FC0EE00121082000F07EFC09E001214A
:100A8000102000F079FC04E00121202000F074FC2B
:100A900000BF00BF10BD70B504460D461646204687
:100AA000FFF7D0FF32462946204600F05AF820468C
:100AB00000F001F870BD3EB50446204601F060F834
:100AC0000546062C33D2DFE804F0030B131B232A60
:100AD0004FF47A70ADF804004820ADF8000026E02D
:100AE00040F2E730ADF804004720ADF800001EE00A
:100AF0004FF47A70ADF804004820ADF8000016E01D
:100B000040F2E630ADF804004620ADF800000EE0FB
:100B10005920ADF804004F20ADF8000007E040F286
:100B2000E730ADF804004720ADF8000000BF00BF7B
:100B30000020ADF80600ADF802008DF80800694607
:100B4000284600F0CBFF0121284600F09BFF012240
:100B50001146284600F0B9FF0021284600F098FF12
:100B60003EBDF8B506460C4615464FF4A06000F0B1
:100B70001FFA26B1012E06D0022E0CD107E01C2050
:100B80008DF8000007E01D208DF8000003E01E2016
:100B90008DF8000000BF00BF8DF801408DF80250B5
:100BA00001208DF80300684600F0CAF9F8BD2DE970
:100BB000F0410246002500260020002300240027E3
:100BC00091F803C00CF00F0591F803C00CF0100C65
:100BD000BCF1000F03D091F802C04CEA050591F872
:100BE00000C0BCF1000F31D0146800202BE04FF0A2
:100BF000010C0CFA00F3B1F800C00CEA03069E42A7
:100C000020D183004FF00F0C0CFA03F7BC4305FA18
:100C100003FC4CEA040491F803C0BCF1280F06D190
:100C20004FF0010C0CFA00FCC2F814C00AE091F875
:100C300003C0BCF1480F05D14FF0010C0CFA00FCC9
:100C4000C2F810C0401C0828D1D31460B1F800C00D
:100C5000BCF1FF0F34DD546800202EE000F1080CD9
:100C60004FF0010808FA0CF3B1F800C00CEA0306D3
:100C70009E4221D183004FF00F0C0CFA03F7BC43C6
:100C800005FA03FC4CEA040491F803C0BCF1280FF8
:100C900005D100F1080C08FA0CF8C2F8148091F89C
:100CA00003C0BCF1480F07D100F1080C4FF0010858
:100CB00008FA0CF8C2F81080401C0828CED3546003
:100CC000BDE8F081F0B50A4600230024002100258C
:100CD00000F00046B6F1004F02D11D4EF16901E06F
:100CE0001B4E7168C0F3034583B200F44016B6F59D
:100CF000401F08D121F07061154E766826F07066AD
:100D0000134F7E6012E000F48016B6F5801F06D106
:100D1000032606FA05F4A14341F0706106E0460D92
:100D2000360103FA06F6B14341F0706122B1460D77
:100D3000360103FA06F6314300F00046B6F1004FE3
:100D400002D1034EF16101E0014E7160F0BD00007F
:100D5000000001400246002093680B400BB10120C7
:100D600000E00020704741617047016170470AB19F
:100D7000016100E04161704700BFFEE710B54FF42C
:100D8000A06000F015F9FFF751FE1849086001F066
:100D900033FE012200210220FFF77DFE4FF4E130F7
:100DA00001F0E4F8022201214FF4165001F02EF96F
:100DB00000F01EFD00F090F800F068F800F04CF92B
:100DC000002000F004F9002000F00FF900F0FAF81C
:100DD00000F02EFC02E0052001F030FE0449054839
:100DE00000F06DFB0128F6D110BD0000980B00202B
:100DF000D20B0020CA0B002010B5044614B101200C
:100E0000204908701F48007830B308211E48FFF7BA
:100E1000A1FF48B110211C48FFF79CFF20B1202101
:100E20001948FFF797FFB8B9002016490870082144
:100E30001548FFF78FFF08B9012010BD1021124897
:100E4000FFF788FF08B90220F7E720210E48FFF7D7
:100E500081FFA8B90320F0E708210B48FFF77AFFCC
:100E600001280DD110210848FFF774FF012807D190
:100E700020210548FFF76EFF012801D101490870C4
:100E80000020DAE714000020000C014008B5012121
:100E9000082000F081FA0820ADF8000048208DF805
:100EA000030069460B48FFF782FE1020ADF80000F2
:100EB00048208DF8030069460648FFF778FE202099
:100EC000ADF8000048208DF8030069460148FFF79F
:100ED0006EFE08BD000C014008B50121182000F08D
:100EE0005BFA4FF40050ADF8000010208DF80300BD
:100EF00003208DF8020069460348FFF758FE0020E2
:100F00000249086008BD000000100140B4012242FF
:100F100000BFFEE7704738B505460C464FF4A060A9
:100F200000F046F826208DF800008DF801508DF86D
:100F3000024001208DF80300684600F001F838BD3A
:100F400070B5002100230F22C47804B3154C246827
:100F500004F4E064C4F5E064210AC1F10403CA406A
:100F6000447804FA03F184781440214309010E4CBB
:100F70000678A155047804F01F050124AC400578DB
:100F80006D11AD0005F1E025C5F8004109E00478D8
:100F900004F01F050124AC40044D0678761145F895
:100FA000264070BD0CED00E000E400E080E100E0D0
:100FB00002490143024A1160704700000000FA052F
:100FC0000CED00E010B5002000F025F810BD10B5C4
:100FD00004461CB90021A62000F092F9012C03D18F
:100FE0000021A72000F08CF910BD10B504463CB9D3
:100FF0000021C82000F084F90021A12000F080F930
:10100000012C07D10021C02000F07AF90021A02096
:1010100000F076F910BD70B50646002419E004F121
:10102000B001C8B2002100F06BF90021084600F0C1
:1010300067F90021102000F063F9002505E0012187
:10104000304600F05DF9681CC5B2822DF7DB601CEC
:10105000C4B2082CE3DB70BD08B50121042000F008
:101060009BF9C020ADF8000010208DF8030003208C
:101070008DF8020069464748FFF799FDC0214548B1
:10108000FFF773FE0121082000F086F90320ADF878
:10109000000010208DF8030003208DF8020069463F
:1010A0003D48FFF784FD03213B48FFF75EFE00212A
:1010B000AE2000F025F90021084600F021F90021BA
:1010C000102000F01DF90021402000F019F9002146
:1010D000812000F015F90021CF2000F011F9002146
:1010E000A12000F00DF90021C82000F009F900212D
:1010F000A62000F005F90021A82000F001F9002148
:101100003F2000F0FDF80021D32000F0F9F8002185
:10111000084600F0F5F80021D52000F0F1F8002194
:10112000802000F0EDF80021D92000F0E9F800213E
:10113000F12000F0E5F80021DA2000F0E1F80021CC
:10114000122000F0DDF80021DB2000F0D9F80021AA
:10115000402000F0D5F80021202000F0D1F8002137
:10116000022000F0CDF800218D2000F0C9F8002108
:10117000142000F0C5F80021A42000F0C1F80021DF
:10118000A62000F0BDF80021AF2000F0B9F8FFF76D
:1011900019FF08BD00080140000C01402DE9F0478F
:1011A000074688461646002584E03078A02845DDAD
:1011B00000253CE0702F04DD002708F1020000F05C
:1011C000FF0830783E4911F8151088422ED170780A
:1011D000012101EB45013A4A515C884226D1414642
:1011E000384600F077F8002407E004EB4511354A53
:1011F000505C012100F084F8641C102CF5D308F138
:101200000100C1B2384600F065F8002408E004EBA4
:10121000451110312B4A505C012100F071F8641C1B
:10122000102CF4D307F11000C7B204E06D1C26485F
:1012300000688542BED300BFB61C3BE07A2F04DDB8
:10124000002708F1020000F0FF0831781F48FEF780
:10125000AFFF8146B9F1000F2BD04146384600F070
:1012600039F800240AE099F80010203904EB011144
:10127000174A505C012100F043F8641C082CF2D39B
:1012800008F10100C1B2384600F024F800240BE058
:1012900099F80010203904EB011108310C4A505C18
:1012A000012100F02DF8641C082CF1D307F108008F
:1012B000C7B2761C307800287FF477AFBDE8F0879E
:1012C000E80A002008060020980B0020370B0020B9
:1012D0001800002070B504460D4605F1B001C8B2F3
:1012E000002100F00DF8102141EA1410002100F057
:1012F00007F804F00F00002100F002F870BD0000B4
:1013000070B504460E4626B101211848FFF72DFDA1
:1013100003E001211548FFF726FD02211348FFF7DE
:1013200022FD002517E040211148FFF71CFD04F0C5
:10133000800020B180210E48FFF717FD03E08021D7
:101340000B48FFF710FD40210948FFF70EFD60062E
:10135000040E681CC5B2082DE5DB02210348FFF727
:1013600004FD01210148FFF700FD70BD000C0140A4
:10137000000801407047000029B1064AD2690243C3
:10138000044BDA6104E0034AD2698243014BDA611B
:10139000704700000010024029B1064A92690243DA
:1013A000044B9A6104E0034A92698243014B9A61BB
:1013B000704700000010024030B5002100220024D8
:1013C00000232D4D6D6805F00C0121B1042905D0D5
:1013D000082923D105E0294D056022E0274D05604D
:1013E0001FE0254D6D6805F47012234D6D6805F4FE
:1013F0008034022505EB92421CB9214D554305600E
:101400000BE01D4D6D6805F400351DB11C4D5543B5
:10141000056002E0194D5543056002E0174D056077
:1014200000BF00BF144D6D6805F0F0010909154DAE
:101430006B5C0568DD4045600F4D6D6805F4E0614B
:10144000090A104D6B5C4568DD4085600A4D6D688A
:1014500005F46051C90A0B4D6B5C4568DD40C56001
:10146000054D6D6805F44041890B074D6B5CC568FF
:10147000B5FBF3F5056130BD0010024000127A00A3
:1014800000093D00B60B0020C60B002000B501226C
:1014900005490648006800F0C1F9012204490548E1
:1014A000006800F0BBF900BDEE2E00209C0B002070
:1014B000D20B0020A00B002001460120704770B520
:1014C00004460D46FFF7E2FF012070BD70470000A3
:1014D00010B50A480088092805DD09480078012868
:1014E00001D1084908700748007828B1064801F082
:1014F000F3FA012000F096FC10BD0000E60B00207E
:10150000EC0B0020A80B00202424002010B500F0D4
:1015100001F810BD0CB50020019000903348006820
:1015200040F480303149086000BF3048006800F462
:10153000003000900198401C0190009818B9019863
:10154000B0F5A06FF1D12948006800F4003010B167
:101550000120009001E0002000900098012843D174
:101560002348006840F010002149086008460068E0
:1015700020F0030008600846006840F002000860A0
:101580001A4840681949486008464068486008465B
:10159000406840F4806048600846406820F47C1051
:1015A00048600846406840F4E81048600846006813
:1015B00040F08070086000BF0C48006800F00070C8
:1015C0000028F9D00948406820F003000749486026
:1015D0000846406840F00200486000BF0348406889
:1015E00000F00C000828F9D10CBD000000100240EA
:1015F0000020024010B501234FF47A7208490948CF
:1016000001F0B0FA0123C8220749084801F0AAFAFC
:10161000044801F0D7FA054801F0D4FA10BD0000E3
:10162000312B0008F41300203D2B00080414002087
:1016300008B501210820FFF7AFFE10208DF8030048
:101640004FF47040ADF8000003208DF802006946A9
:101650000448FFF7ACFA4FF470410248FFF783FBF0
:1016600008BD0000000C01402DE9F04104460D4684
:101670001646002720E05CB911480078401C10494C
:10168000087008460078032810DD002008700DE07F
:10169000012C0BD10A480078012802DA04200849FD
:1016A000087007480078401E054908703146044814
:1016B000007800F007F87F1CAF42DCD3BDE8F08172
:1016C000A40B002070B505460C4635B1012D10D095
:1016D000022D1AD0032D30D123E0012211031B4823
:1016E000FFF745FB00224FF460411848FFF73FFB2E
:1016F00024E0012251031548FFF739FB00224FF483
:1017000050411248FFF733FB18E0012291030F48C4
:10171000FFF72DFB00224FF430410C48FFF727FB69
:101720000CE00122D1030948FFF721FB00224FF40E
:10173000E0410648FFF71BFB00E000BF00BF20466A
:1017400001F07CF900F004F870BD0000000C0140CD
:1017500010B54FF470410248FFF705FB10BD0000C3
:10176000000C0140042808D14FF0E021096941F044
:1017700004014FF0E022116107E04FF0E021096918
:1017800021F004014FF0E022116170477047000022
:1017900010B51348006840F0010011490860084680
:1017A0004068104908400E494860084600680E49E4
:1017B00008400B4908600846006820F48020086053
:1017C0000846406820F4FE0048604FF41F0088601F
:1017D000FFF79CFE4FF000600449086010BD000058
:1017E000001002400000FFF8FFFFF6FE08ED00E0E9
:1017F00010B501210820FFF7CFFD01210846FFF7B2
:10180000CBFD01210348FFF75DFA01210248FFF7F4
:1018100059FA10BD000430000002300030B5034614
:101820000D480488B3F1006F01D2012030BD4FF0A4
:10183000006000EB8420984201D20220F6E703E02A
:1018400018780870491C5B1C101EA2F10105AAB291
:10185000F6D100BFEAE70000E0F7FF1F2DE9F84FDF
:101860008046894616465648B0F800A0A8F1006B9D
:101870004FEADB25CBF30A0000900098C0F5006723
:10188000B8F1006F02D20120BDE8F88F4FF0006080
:1018900000EB8A20404501D20120F5E749484A493A
:1018A00048604A484860BE4200DC37467DE0484810
:1018B00001F0B8F908B10220E6E74FF0006101EB52
:1018C000C5200A144349FFF7A9FF414801F0AAF9CE
:1018D00008B10220D8E73C48006940F002003A49CC
:1018E00008614FF0006000EBC520486108460069C0
:1018F00040F040000861364801F094F908B1022038
:10190000C2E73148006941F6FD7108402E4908617F
:10191000002007E019F80020009901442D4B5A548B
:10192000411C88B2B842F5DB00242AE0284801F0C7
:1019300079F908B10220A7E72348006940F00100C7
:1019400021490861234810F81400012101EB4401EA
:10195000204A515C40EA01204FF0006101EBC521B3
:1019600021F814001A4801F05DF908B102208BE754
:101970001548006941F6FE71084013490861601C72
:1019800084B2B4F5806FD1DBB74200D10EE0B94428
:101990006D1C00200090F01B86B2B6F5006F02DDD2
:1019A0004FF4006000E03046074680E700BF06487D
:1019B000006940F0800004490861002064E70000ED
:1019C000E0F7FF1F2301674500200240AB89EFCD00
:1019D000888888002414002010B50121234800F0D5
:1019E00063F8002841D022480068401C2049086064
:1019F00001F010F91E4800681921B0FBF1F201FB5B
:101A0000120010B900201B490870194800680A210B
:101A1000B0FBF1F201FB1200B8B917480068401C96
:101A2000154908601548007878B9154800880028DD
:101A300004DD13480088401C1149088010480088C4
:101A40000A2802DD01200D490870094800684FF49A
:101A50007A71B0FBF1F201FB120010B900200449C9
:101A600008600121014800F010F810BD0008004096
:101A7000E00B0020E40B0020E80B0020EC0B002022
:101A8000E60B0020CA4302827047CA4302827047B5
:101A900021B1028842F00102028004E002884FF680
:101AA000FE731A400280704730B5024600200023C2
:101AB0000024158A05EA0103958905EA010413B19A
:101AC0000CB1012000E0002030BD1AB183890B4326
:101AD000838102E083898B438381704700220288DF
:101AE0001D4B98420ED01D4B98420BD0B0F1804F49
:101AF00008D01B4B984205D01A4B984202D01A4B83
:101B0000984204D14FF68F731A404B881A43174BF3
:101B1000984207D0164B984204D04FF6FF431A4024
:101B2000CB881A4302808B8883850B8803850A4BF8
:101B300098420BD0094B984208D00E4B984205D0E2
:101B40000D4B984202D00D4B984201D10B7A03867F
:101B50000123838270470000002C014000340140C3
:101B60000004004000080040000C0040001000404D
:101B70000014004000400140004401400048014082
:101B80000146022901D1024800BF00BF7047000092
:101B90000008004010B540F225511D4800F081F8C2
:101BA00010B31B4800F038F9C4B21A48008800F49A
:101BB0000040C8B91748008800F4804060B10A2C82
:101BC00003D000201349088020E01248008840F428
:101BD00000401049088019E00D2C06D10D480088FE
:101BE00040F480400B49088010E00A480088C0F3A8
:101BF0000D0009490C5407480088401C054908801D
:101C000008460088C72801DD0020088010BD0000BC
:101C100000380140B40B00202426002010B540F20B
:101C20002551104800F03DF8D0B10E4800F0F4F80E
:101C3000C4B20D480088FF2807DA0B4801880088E5
:101C4000401C094A10800948445401200849088072
:101C50000020084908702021024800F00DF80024F7
:101C600010BD000000440040A60B002024240020EA
:101C7000E60B0020EC0B002001F40072B2F5007FAF
:101C800000D100BFCA430280704721B1828942F46B
:101C90000052828104E082894DF6FF731A408281EE
:101CA000704770B50246002400230025002040F64E
:101CB0006A16B14200D100BFC1F3421501F01F0303
:101CC000012606FA03F3012D02D19689334006E07E
:101CD000022D02D1168A334001E0968A33400C125D
:101CE000012606FA04F41688344013B10CB1012021
:101CF00000E0002070BDF0B503460024002600255A
:101D0000002040F66A17B94200D100BF1846C1F35F
:101D1000421401F01F06012707FA06F5012C01D134
:101D20000C3004E0022C01D1103000E014301AB164
:101D300007682F43076002E00768AF430760F0BD04
:101D40002DE9F04786B005460E460024A24600BFA6
:101D5000A1460027B08900B100BF2F462C8A4CF65F
:101D6000FF700440F08804432C82AC894EF6F310D7
:101D70000440B08831890843718908430443AC8129
:101D8000AC8A4FF6FF400440B0890443AC8201A8FE
:101D9000FFF712FB1F48874202D1DDF810A001E0D7
:101DA000DDF80CA0A88900F4004040B10AEBCA009D
:101DB00000EB0A1031684900B0FBF1F807E00AEBCC
:101DC000CA0000EB0A1031688900B0FBF1F864200A
:101DD000B8FBF0F004012009642101FB1089A889F7
:101DE00000F4004040B1322000EBC900B0FBF1F03C
:101DF00000F00700044308E0322000EB09106421E2
:101E0000B0FBF1F000F00F0004432C8106B0BDE8F8
:101E1000F08700000038014001468888C0F30800C0
:101E20007047000010B5044624B1012C09D0022CE3
:101E300015D113E00B4A0C4801880CA000F046F9BC
:101E40000EE04FF480710748FEF795F9002006492F
:101E500008800C4908700C49088001E000E000BFD0
:101E600000BF10BD24240020A60B002075617274F1
:101E70003220726563763A2025642C2025730D0A82
:101E800000000000A80B0020E60B002010B527483A
:101E9000408AF8B12548408A012804D0022808D099
:101EA000032811D10CE00020214908701F498870D7
:101EB0000AE0B4201E49087001201C49887003E024
:101EC0005A201B49087000BF00BF002017494882F4
:101ED00000F0E6F81648407815490978884222D083
:101EE000134800781249497888420CDD1048007880
:101EF0000F4A5278801A00EB400081000322002034
:101F0000FFF7B2FB0BE00A484078094A1278801AC2
:101F100000EB4000410003220120FFF7A5FB04482D
:101F2000007803494870012010BD0000EC2E00200D
:101F3000D20B002000B58DB00648027806A1684695
:101F400000F0D4F86A4603210020FFF727F90120AA
:101F50000DB000BDD20B0020D0FDD7AABDC7B6C8BA
:101F60003A2025303364200000BFFEE710B586B06C
:101F70000446012144F20400FFF70EFA4FF400700A
:101F8000ADF8140003208DF8160018208DF8170006
:101F900005A91C48FEF70BFE4FF48060ADF8140055
:101FA00004208DF8170005A91648FEF700FE25202D
:101FB0008DF8000003208DF801008DF8020001204B
:101FC0008DF803006846FEF7BBFF01940020ADF8D2
:101FD0000800ADF80A00ADF80C00ADF810000C20B8
:101FE000ADF80E0001A90848FFF7AAFE012240F251
:101FF00025510548FFF77FFE01210348FFF745FE05
:1020000006B010BD000801400038014070B586B030
:1020100006460C46154601210420FFF7BDF90121B3
:102020004804FFF7A9F90420ADF8140018208DF832
:10203000170003208DF8160005A91748FEF7B7FD15
:102040000820ADF8140004208DF8170005A91248E7
:10205000FEF7ADFD01960020ADF80800ADF80A00CE
:10206000ADF80C00ADF810000C20ADF80E0001A981
:102070000A48FFF765FE29462046FEF74CFF01227D
:1020800040F225510548FFF736FE01210348FFF7CE
:10209000FCFD06B070BD0000000801400044004097
:1020A00010B50122054906480068FFF7D7FB012259
:1020B000044905480068FFF7D1FB10BDEE2E002053
:1020C0009C0B0020D20B0020A00B00200FB4054B6E
:1020D00010B503A9044A029800F0F2F810BC5DF8AC
:1020E00014FB0000892A0008B00B00200FB4084B35
:1020F00010B504A902AA039800F0E2F8044602A968
:10210000002000F074FC204610BC5DF814FB0000B9
:10211000EF29000800487047F00B002002E008C8D3
:10212000121F08C1002AFAD170477047002001E051
:1021300001C1121F002AFBD1704700002DE9FF5F8B
:1021400082B00021DDE90430020DDDF840B0034328
:1021500018D044F61050A2F2FF32424315141198E1
:1021600001281FD0A5EB0B00401C5FEA000A4FF0CE
:1021700000064E4FDFF83891B046504615D5CAF1EB
:10218000000413E0119801244AA3012801D16FEA49
:102190000B010298119AC0E90031C0E9024206B071
:1021A000BDE8F09FCBF10000DFE704460021404A84
:1021B000491842EB0450CDE9001012E0E00707D0C7
:1021C00032463B4640464946FEF7B0F880468946CF
:1021D00032463B4610461946FEF7A8F806460F461B
:1021E0006410002CEAD1DDE90401DDE90023BAF135
:1021F000000F06DAFEF79AF842464B46FEF796F8CD
:1022000005E0FEF72AFA42464B46FEF726FA044658
:102210000E460022284BFEF7FBF803D84FF0FF30A4
:10222000014607E00022254B20463146FDF7D7FF47
:10223000FEF782FA102409E0002C0ADB0A220023B0
:10224000FEF714F9039B30321A55641E50EA01025E
:10225000F2D1641C039AC4F111031444119A012AA7
:1022600003D0012208430DD10AE0084304D0002026
:102270004FF0110B119072E7A3EB0B056D1E0DE0F3
:102280005B4504DD4FF0000205F1010504E003DACF
:102290004FF00002A5F10105002AECD00298119937
:1022A000C0E90231C0E9004579E7000000001440B0
:1022B0000000F03F300000000000F0430000E03F6D
:1022C0002DE9FF4F95B09B468946064600250FE253
:1022D000252877D100242746F84A0121059400E0FB
:1022E000044316F8013F203B01FA03F01042F7D1F6
:1022F00030782A2811D06FF02F033078A0F1300207
:10230000092A16D8059A44F0020402EB820203EB74
:1023100042021044761C0590EFE759F8042B059211
:10232000002A03DA504244F40054059044F00204B9
:10233000761C30782E2816D116F8010F44F00404CC
:102340002A280DD06FF02F023078A0F13003092B2E
:1023500009D807EB870302EB4303C718761CF3E7A2
:1023600059F8047B761C30786C280FD006DC4C289A
:1023700017D068280DD06A2814D104E0742810D032
:102380007A280FD10DE044F400140AE044F48014DC
:1023900001E044F440147278824202D104F58014C2
:1023A000761C761C307866280BD013DC582877D042
:1023B00009DC002875D04528F6D04628F4D04728F7
:1023C0001AD19DE118E0632835D0642879D06528BA
:1023D00012D195E1702873D008DC6728F1D0692804
:1023E0006FD06E280DD06F2806D1B5E073282CD0A1
:1023F000752875D0782874D05A46179990476D1C67
:1024000075E1C4F30250022809D003280DD0D9F891
:10241000001004280DD00D6009F1040967E1D9F816
:102420000010EA17C1E90052F6E7D9F800100D8054
:10243000F2E70D70F0E719F8041B8DF8001000208A
:102440008DF80100EA46012003E059F804AB4FF093
:10245000FF3061074FF0000102D40DE008F10101E7
:102460008846B9420FDA8045F8DB1AF808100029CF
:10247000F4D108E008F1010188468142FADB1AF83C
:1024800008100029F6D105985B46A0EB0807214605
:102490003846179A00F094FA284400EB080507E044
:1024A0004DE029E10DE01AF8010B5A4617999047C3
:1024B000B8F10108F7D25B4621463846179A13E176
:1024C00042E00A220092C4F302524FF0000A022AAC
:1024D00008D059F804CB032A4FEAEC710AD00DE07A
:1024E00029E02AE009F1070121F00702F2E802C120
:1024F000914609E00FFA8CFC4FEAEC71042A03D1F3
:102500004FFA8CFC4FEAEC71002907DA0A460021E9
:10251000DCF1000C61EB02012D2202E0220504D562
:102520002B228DF80420012203E0E20701D02022B3
:10253000F7E7904659E00A2102E010220DE0102151
:102540004FF0000A00910BE010224FF0000A44F017
:1025500004040827009203E008224FF0000A0092CA
:10256000C4F30252022A05D059F804CB0021032AF1
:1025700008D009E009F1070121F00702F2E802C1E1
:10258000914605E01FFA8CFC042A01D10CF0FF0CE7
:102590004FF00008220728D5702806D0009B83F052
:1025A000100353EA0A0305D00EE040228DF8042000
:1025B000012208E05CEA010206D030228DF80420F6
:1025C0008DF8050002229046009B83F0080353EA31
:1025D0000A030AD15CEA010201D1620705D5302263
:1025E0008DF804204FF001087F1E582804D034A035
:1025F00003900EA802900DE036A0F9E7534660461E
:10260000009AFDF733FF84460398825C0298401ECF
:10261000029002705CEA0100F0D1029806A9081A43
:1026200000F1200A600702D524F4803400E001277D
:10263000574502DDA7EB0A0000E0002000EB0A018D
:10264000009005984144401A0590E00306D45B468B
:102650002146179A059800F0B3F90544002706E0D3
:1026600001A85A46C05D179990476D1C7F1C4745CD
:10267000F6DBE0030CD55B462146179A059800F07F
:102680009FF9054404E030205A46179990476D1C85
:102690000099481E00900029F5DC08E00298029994
:1026A0005A460078491C0291179990476D1CBAF15F
:1026B0000001AAF1010AF1DC65E10000092801002E
:1026C00030313233343536373839616263646566A8
:1026D000000000003031323334353637383941426A
:1026E000434445460000000000F058F90544761CBC
:1026F000307800287FF4ECAD19B02846BDE8F08FA3
:10270000620700D4062709F1070222F0070CFCE853
:102710000223E14603F000485FEA080C02D00FF202
:10272000702C0DE05FEA045C02D50FF2682C07E024
:102730005FEAC47C02D00FF2602C01E0AFF2700CB3
:102740004FF0FF3823F00043CDF850C065280CD07F
:1027500006DC452809D046281DD047283DD13DE05C
:10276000662818D067287ED138E00021112F01DBC0
:10277000112000E0781CCDE9000106A90EA8FFF7A2
:10278000DDFCDDE90F010E9A03910021009207F1B3
:10279000010A04914DE04FF000400097CDE901108F
:1027A00006A90EA8FFF7CAFCDDE90F0203920E9BF3
:1027B00011990022DDF80CA00093049211B9791C44
:1027C00000EB010AB7EB0A0004D4C0F1FF3007F1B7
:1027D000010A0490AAEB0700019044E0012F00DAFF
:1027E00001270021112F01DD112000E03846CDE93D
:1027F000000106A90EA8FFF7A1FCDDE90F010E9A62
:102800000391002104910092BA4621070CD4039948
:10281000514500DA8A46BAF1010F05DD009AAAF1A6
:102820000101515C302908D0B84202DA10F1040FDE
:1028300006DA0121CDE9011015E0AAF10101E9E76D
:10284000002805DC049901440491AAEB000102E090
:10285000411C514500DD8A460499401A401C0190F4
:102860004FF000400290200704D40198504501DB4E
:10287000CDF8048000208DF84F0002980DF14F072D
:10288000B0F1004F25D02B200E9002984FF0020897
:1028900000280CDA404202902D200E9007E00A2119
:1028A0000298FDF7CDFD3031029007F8011DB8F117
:1028B0000001A8F10108F2DC02980028EFD1791E8E
:1028C0000E980870307800F0200040F0450007F8BE
:1028D000020D12A8C01B00F107081498007800B17F
:1028E000012000EB0A01019801EBE07105984144D9
:1028F000401A401E0590E00306D45B462146179A15
:10290000059800F05DF805441498007818B15A460F
:10291000179990476D1CE00324D55B462146179A12
:10292000059800F04DF805441CE00498002807DBEA
:10293000DDE90301884203DD0098405C179901E05E
:10294000179930205A469047049805F10105401C1C
:1029500004900198401E019004D12E205A461799E8
:1029600090476D1CBAF10001AAF1010ADDDC05E017
:1029700017F8010B5A46179990476D1CB8F10001E2
:10298000A8F10108F4DC5B462146179A0598ABE6EE
:102990002D0000002B000000200000002DE9F04178
:1029A000044600251E461746880404D405E039462F
:1029B0002020B0476D1C641EF9D52846BDE8F08183
:1029C0002DE9F041044600251E469046C80301D576
:1029D000302700E02027880404D505E0414638462A
:1029E000B0476D1C641EF9D52846BDE8F0810A6821
:1029F000531C0B601070704710B56FF00400FEF7A9
:102A0000B1FE0A4800680A49B0FBF1F009490870B4
:102A10000846007800EB4001C1EBC0104FF6FF7193
:102A200001EAC0000449088010BD00000000002039
:102A300000127A00AA0B0020AC0B00200146114ABC
:102A400012884A434FF0E0235A6100229A611A46E5
:102A5000126942F001021A6100BF4FF0E0221069D2
:102A600000F001021AB100F48032002AF5D04FF0D4
:102A7000E022126922F001024FF0E0231A610022E5
:102A80009A617047AC0B002000BF054A128802F023
:102A90004002002AF9D0C2B2014B1B1D1A807047B8
:102AA00000380140FEF7A6FDFEF768F9012108484D
:102AB000FEF7EEFF0BE000F065F8FEF709FD0548B4
:102AC000007820B9FDF7F2FE012002490870F2E714
:102AD00000080040E40B0020FEB506460024002557
:102AE0003A213046FDF764FB0446DCB1641C05E086
:102AF00014F8012B28466D1C0DF800202078302892
:102B000002DB20783928F3DD00200DF80500684647
:102B1000FDF758FB054604A13046FDF737FB08B129
:102B200002494D820120FEBD636D6400EC2E002041
:102B300010B5FDF7B7FEFFF7FDF910BD10B506485B
:102B4000FEF7BAFCFFF7A2F904480068C043044945
:102B5000C1F8B40110BD0000EC2E0020B4012242E7
:102B60000000224210B58160054C246814440460C2
:102B70000024C4600BB1426001E00024446010BD39
:102B8000DC0B002010B50D48046813E00C492068E8
:102B90000968401A00280CDC606818B9204600F06B
:102BA00027F804E006496068096808442060A068C6
:102BB0008047E468002CE9D110BD0000D80B00204C
:102BC000DC0B002001460948026805E08A4202D178
:102BD0004FF0FF307047D268002AF7D103480068F1
:102BE000C860024801600020F4E70000D80B002014
:102BF0000246074808E00168914202D1CB680360B1
:102C000001E001F10C0000BF01680029F3D1704719
:102C1000D80B002002480068401C0149086070473A
:102C2000DC0B0020014600BF0648C06800F0010030
:102C300018B1081EA1F10101F6D109B901207047B0
:102C40000020FCE70020024000404040404040405F
:102C5000404041414141414040404040404040406F
:102C60004040404040404040400502020202020213
:102C70000202020202020202022020202020202062
:102C80002020200202020202020290909090909076
:102C90001010101010101010101010101010101034
:102CA00010101010020202020202888888888888A8
:102CB0000808080808080808080808080808080894
:102CC000080808080202020240000000492C00081F
:102CD000F02C000800000020F40B00004E08000853
:102CE000E8340008F40B00200C2700002C21000819
:102CF0001184A24A04000A16010203040607080907
:102D00000172F852331C100C0603912C40C078035A
:102D1000112C043F040321367088FC08302618204B
:102D2000FF211E14F008F033E0184D211C031E1182
:102D3000338870000C101E2123241927211010162F
:102D40000E45E018040225071820403D020418E053
:102D5000692C20180707174080F08040403F02028E
:102D6000010F0102283AF0C41C01011F04912B80BD
:102D7000B066B1191D2901912A30A5592C1460188B
:102D8000043C6018061D1EE010080810721F0F108A
:102D90002020100FF05310F83620203F20203C70E8
:102DA0000808C21E3028242221441E300888884882
:102DB000082E1820202011CC3BC0203227070424E5
:102DC000243F241AF8202308084B19212036E0104C
:102DD0008888184B0F11101E380808C83820215257
:102DE0003F1A702E29608F1C222121221C90111D58
:102DF00031222211901961CAC0C26A80C659081CCA
:102E000040201050170102040810204A4001114AC6
:102E100004012119152A403219251B0402F21B70E6
:102E200048D13AF0501A360F1EC030C828E8702832
:102E3000080718272423140B6F2A387E280D203CFE
:102E400023020227382008F888889F4B203FF01B78
:102E5000C0303F1B083830191019781B08F80F19BB
:102E60004039201B100F103E8888E8081010AC2352
:102E7000201810112A035E2940223829402C221ED6
:102E8000024019A41809F808203F21010121252A30
:102E90000852298129424149112EC08080807F0E2D
:102EA0002FF888C0281808501C0126382F294029DF
:102EB0002F29801B20301012F81AF81413203F1904
:102EC0000229204B30C0601A2074123F4BE010B032
:102ED0006B0F10B029D01AF0301980220179203FF1
:102EE00018242438504FC04C888870C0140C3020EF
:102EF0004B7088C11738202121221C3A189F4A188C
:102F00008239A049D0112A1F90121F240878881BEB
:102F1000C838151C07380E60191A1AF82011140346
:102F20003C0714073C034814081868808068180898
:102F300020302C03032C30200838C82F5950298FFB
:102F400029102F203826212020681145FE02020278
:102F5000257F4040401A0CE0611C0106380B191D0A
:102F600042FE191D527F1A04120211045A800119DF
:102F700030D91D391621180819242222223F20ABEE
:102F8000390F115F3F112020110E21311A0E104B05
:102F90002011104B88F8102A10B359401A1F3F2BEC
:102FA00022130F16F0888888181A20D029D1497A60
:102FB00021176B94949493603960190F4C203F2132
:102FC000F354809898793059121AC02719D11930C2
:102FD00039311F203F24022D30212A0812893069FF
:102FE000D7294B2903190BC96079A019BF2B201FC2
:102FF000DD390F9C80FFA1E0191229D03BA0FF0C06
:103000003950194112208A01C01B3324012A190F9B
:103010003AE0413952290F392349603C103F202CB6
:1030200029053F010E3008060170291038080F30BD
:103030000C030C300F2C49A14E312E0E31200C29DF
:10304000621D818E70183059D1215721302C2221D8
:103050003055807C0202443F404072FF39083C02F8
:10306000027C8F5440403F4E02010202042F391768
:103070002342CC1E445454547F042A443F147F20DE
:10308000103008FF15151555957F1808101010FF02
:10309000109004012AFC05112D0444827FF62B4078
:1030A000801E197C1D828282FE04490629AC2A40BA
:1030B000C6798617080888FF4848370848FF080877
:1030C000F8100C8165080720C0080423C0032B23D7
:1030D000C42A1FC04040407F48012CC808083F2E2A
:1030E000370404146403340710E0400C2020100857
:1030F0001467844424140C19842E02FE43434201B5
:1031000032FE1F2424A4FE2322741A083F13281819
:10311000180A080601FF0102100C43A0140106184A
:103120001809108C4404E40495A640158444940CBA
:10313000180902027A414143427E3F2A4390170414
:1031400084E45C44C42B02F2C21380801F02017F1E
:1031500010103FB71708084888403F2B407C9D104F
:103160000A40F2121AD61212F202180F908E404F35
:10317000201E804F20180710204FF0180E14A44472
:103180002434AD6624940444A414F0180B090808F0
:10319000090909FD09090B091208180F1010D0FFC1
:1031A0009014E4AFA4A4A4AFE40470120312FF18B7
:1031B0000B894B2A1A0E1A2A4B8880202A90011854
:1031C000091010FF1010111610F01760203F10109A
:1031D000102E030C102040A22A240137FC222222A8
:1031E00023222A02013C42827F084302022809F876
:1031F000888C8A898888882D414BFF440142FF1CB6
:103200004044C40B3A40602310F0180D103C1310DA
:1032100014B840300E014080DF1125404042CC30D0
:10322000094A32222AF121312D1916180C408081C9
:10323000BDA1A1BFA1A1BD81A0100E10FF9020983B
:103240004828090E2848A8182D0242817F351C42C3
:10325000427E042A400B100D4458C0407F40C050AD
:1032600048464040378080402018071B3F400122DD
:10327000781AFE2712FE180842A29E82A2C2BE5FE2
:10328000266F080828CF4B2FC8081602E222223EDC
:10329000200A809E9292F292929E801F4382423E2A
:1032A0004047B4367F444454E72809FC242424FCD6
:1032B000252624081204181040308F80844C552590
:1032C0002525554C808080A0100EF19690901028F6
:1032D0002724E42424E4041F80601F40807F061A12
:1032E00020401344401010C8B88FE88888404848F0
:1032F000E85F4848484017081808FF0404200802FF
:103300000B1222D20A061E2010E824273A36243453
:103310002C20E0193A1A0901577F090949897F09C8
:103320001C801122FC12FF200A4020D8171010F038
:103330001010150F0402FF180980402116081621ED
:10334000402011500CFE0202F2121212F20202FE92
:103350001C7F2020712D242720206078080808F980
:103360004A48C84840AF40300F20403F401B7C4097
:10337000012AFF05196B590F3B407F0619111D10DB
:1033800060028C642A92012960180A04047E0140BC
:103390007E42427E024C427E4020491F79201C44DE
:1033A0004850400E217F50484440E015848484FCFE
:1033B0002A10012AFFE01A3F09223F2D0106408012
:1033C000C01114F801064AF0E039E132FF161F116E
:1033D00011111F5921114BFE8201291E4139CC299F
:1033E000D4511B04FF7813FF041DFE222222224821
:1033F0000E88482F090919AF48300F024282401E3B
:10340000BE2A2A2AEA04523E1C444249012A7F0568
:103410002A41BF091D401841C7EBB4F2BFAAC8C872
:10342000B5E3C3FBB3C6C3DCC2EBC6B5C2CAC4A313
:10343000CABDCAD6D7D4B6AFD2A3BFD8B9E2D5D504
:10344000C7BFB6C8D0FDD7AABDC7B6C8CAD5BBD8F6
:10345000B7C5B3F6CEC2CAAA0E100CB1BCE4C8D52B
:10346000C6DAD0C7C6DA60602021222324252627A9
:1034700028292A2B2C2D2E2F303132333435363754
:1034800038393A3B3C3D3E3F404142434445464744
:1034900048494A4B4C4D4E4F505152535455565734
:1034A00058595A5B5C5D5E5F606162636465666724
:1034B00068696A6B6C6D6E6F707172737475767714
:1034C00078797A7B7C7D7E13A0C01B08C00401162E
:1034D0002D01020304040808150607080902040662
:0834E00026392AD9080000007A
:0400000508000145A9
:00000001FF
